:1000000001308A0093290000FF00030E8301A10044
:100010007F08A0000A08A7008A01A00E0408A20019
:100020007708A3007808A4007908A5007A08A6003C
:10003000831383128C308400801E20288C1A65283C
:10004000220884002308F7002408F8002508F90096
:100050002608FA0027088A00210E8300FF0E7F0E73
:1000600009005E08031939285D088000840ADE0B48
:1000700034280800DE013030DD00E0014030DF00D0
:100080001030F8005F08840083136018831700089D
:10009000F7005D08840083135E18831777088000DB
:1000A000DD0A0319DE0ADF0A0319E00AF80B422809
:1000B0004030840083132030DD001030DE0031201A
:1000C0001030D0000130D10008008C1E65281A08BD
:1000D000A90029081B3C031D71280130AE00AF01A7
:1000E000B728AE08031980282A302F07840083130D
:1000F00029088000AF0A2F08033C031CAE01B62874
:1001000029080D3C031D972850080F3C031C3A207A
:1001100050080F3C031C9428303050078400831390
:1001200020308000D00A88280130D100B628290864
:10013000083C031DA828D0080319A728D003303095
:10014000500784008313203080000130D100B6288E
:10015000303050078400831329088000D00A5008EB
:100160001F3C0318B4283A200130D1008C128C12A5
:100170008A11202853308400831300080319CD28E6
:100180000630F800F701F70BC328F80BC2287B30C4
:10019000F700F70BC928800BC02808008030DC006E
:1001A000DB015B08073C031CEE285A085C050319B9
:1001B000DE288316851183128515E22883168511A2
:1001C0008312851183168611831286158316861174
:1001D000831286110310DC0CDB0AD128831606106B
:1001E0008312061483160610831206100800831665
:1001F0000511831205118316851083128510590885
:10020000DA00CE2083160511831205158316051119
:100210008312051108003230D300BA203C30D900D7
:10022000F7205330F700F70B13290F30D900F720D0
:100230005330F700F70B1A290130D900F7200230AC
:10024000D300BA20BE290130D900F7205330F7007F
:10025000F70B2829E92980305607D800D708031959
:1002600033294030D8075808D900F7205330F70019
:10027000F70B3829080053080F39D400530ED50066
:100280000F30D5055408D6005508D7002B2108009B
:1002900083160511831205118316851083128514A8
:1002A0005408DA00CE208316051183120515831633
:1002B00005118312051108000B138B138B1B5D298D
:1002C0008030D900F7205330F700F70B6529D201B1
:1002D00052080F3C031C76293030520784008313E8
:1002E0000008D300D4004821D20A6829C030D900C0
:1002F000F7205330F700F70B7B291030D20052085B
:100300001F3C031C8D2930305207840083130008E2
:10031000D300D4004821D20A7F295008D3003B21C2
:10032000C0308B04202B840183131F308305813060
:1003300083169900A63098009030831298000730F9
:100340009F008316851183128511831686118312EF
:100350008611831606108312061083160510831269
:1003600005108316851083128510831605118312DC
:10037000051183160612831206160B29AE01D00151
:10038000D1013030840083132030DD00DE003120C5
:100390000830D200FA30D300BA20D20BCA29831613
:1003A0008C16C03083128B040130AE006330AA007B
:1003B0000130AF00AE0803191B2BAF0803191B2B2C
:1003C0002A08633C0319E8292A08433C031DF42941
:1003D00023293030840083132030DD00DE003120FB
:1003E000D001D101AE011B2B2A086C3C0319FC295A
:1003F0002A084C3C031D1B2A50080F3C031C0A2AE8
:10040000D0013030840083132030DD001030DE0056
:100410003120142A1030D000403084008313203063
:10042000DD001030DE0031205008D3003B21AE014A
:100430000130D1001B2B2A08643C0319232A2A0807
:10044000443C031D562A30305007D200D301031814
:10045000D30A30305007D400D5010318D50A013033
:10046000D4070318D50A5008203CD600F800031919
:100470004F2A540884008313551883170008F70087
:100480005208840083135318831777088000D20A18
:100490000319D30AD40A0319D50AF80B392AAE0175
:1004A0000130D1005008D3003B211B2B2A08653CAA
:1004B00003195E2A2A08453C031D932A50080F3C65
:1004C000031C792A30305007D200D3010318D30A15
:1004D0005008103CD400520884008313531883172B
:1004E0002030DD005408DE003120AE010130D100A3
:1004F0008F2A30305007D200D3010318D30A500896
:10050000203CD400520884008313531883172030F2
:10051000DD005408DE003120AE010130D10050086A
:10052000D3003B211B2B2A086E3C03199B2A2A0867
:100530004E3C031DA02A83160612831206121B2BA3
:100540002A08663C0319A82A2A08463C031DAD2A3E
:1005500083160612831206161B2B2A08673C031902
:10056000B52A2A08473C031DD22A2F08033C031D45
:10057000D22A30302B02D20030302C025207F70042
:10058000770ED000F030D00530302B02D200303062
:100590002C02D3005208D6005308D7002B21AE01FD
:1005A000D1011B2B2A08703C0319DA2A2A08503C77
:1005B000031D1B2B2F08023C031D1B2BD008031906
:1005C000EB2A2B086C3C0319E92A2B084C3C031D31
:1005D000EB2AD003162B50081F3C031CF92A2B08CA
:1005E000723C0319F72A2B08523C031DF92AD00A42
:1005F000162B50080F3C0318082B2B08753C0319C9
:10060000052B2B08553C031D082B1030D002162B50
:1006100050080F3C031C162B2B08643C0319142BA9
:100620002B08443C031D162B1030D0075008D30074
:100630003B21AE01D101D1080319202BD1015C2946
:04064000DA29630050
:02400E000A3F67
:00000001FF
;PIC16F628A
;CRC=993C  CREATED="08-mars-12 12:50"
