:1000000003308A005D2B0000FF00030E8301A10076
:100010007F08A0000A08A7008A01A00E0408A20019
:100020007708A3007808A4007908A5007A08A6003C
:10003000831383128B1E1E280B192F28220884007D
:100040002308F7002408F8002508F9002608FA001C
:1000500027088A00210E8300FF0E7F0E0900AF08DB
:10006000031D78282E08253C03183B28831685118C
:10007000831285153F288316851183128511AE08DA
:10008000031D7628AB0A2B083C3C031D542836146C
:10009000AC0AAB012C083C3C031D5428AD0AAC0152
:1000A0002D08183C0319AD013508023C031C6728D4
:1000B000031D5E283408D23C031C67284B30AE0079
:1000C0002D30B407013003180230B5076F284C30CB
:1000D000AE00D330B4020230031C0330B502B408C2
:1000E000031D7528B5080319B6147728AE03C22876
:1000F0002F0B7B287F282F08023C031DC228831664
:1001000006158312361306193617831686158312C1
:10011000B6138619B61736199A28361B9A28371936
:100120009A28AE08031D982836152530AE00992868
:10013000AE03BC283619A428361FA4283719A428D2
:100140002530AE003615BC28B619B328B61BB32827
:10015000B719B328AE08031DB128B6152530AE0077
:10016000B228AE03BC28B619BC28B61FBC28B719E4
:10017000BC282530AE00B6153711361B3715B71120
:10018000B61BB7150B118A111E28B9013908033C9B
:10019000031CF22830303907840083130008BC00A8
:1001A0008030BB00BA013A08073C031CF0283C0829
:1001B0003B050319E0288316861283128616E4286D
:1001C000831686128312861283168613831286176D
:1001D00083168613831286130310BB0CBA0AD32826
:1001E000B90AC62883160613831206178316061348
:1001F0008312061308003A308400831300080319A1
:100200000E290630F800F701F70B0429F80B032933
:100210007B30F700F70B0A29800B012908007808CA
:100220000319172977088000840AF80B122908009F
:10023000283084008313F7010330F8000F212B309E
:1002400084008313F7010330F8000F21942B08304A
:10025000F8000430F700F70B2B2985108316851062
:100260000330F700F70B32298312BF0D0511031C71
:100270003C2983160515831203184129831605119D
:100280008312831685148312851C4429F80B2929AF
:100290000430F700F70B4A298510831685100000FB
:1002A00005150330F700F70B53290330F700F70B60
:1002B000572985148312851C5B29F8010330F70048
:1002C000F70B6029051978148510831685108312A1
:1002D000051183160511831208003D0EF7000F303B
:1002E000F7057708BF003F08C0000A30C100F701DA
:1002F000F801400803104118F707F70CF80CC11873
:10030000F707F70CF80C4119F707F70CF80CC119AF
:10031000F707F70CF80C411AF707F70CF80CC11A9D
:10032000F707F70CF80C411BF707F70CF80CC11B8B
:10033000F707F70CF80C7808BE003D080F3978076E
:10034000F80008002B08A8002C08A9002D08AA0016
:10035000831605150430F700F70BAC29851403301C
:10036000F700F70BB129831205118316051104302C
:10037000F700F70BB9298312851083168510D0304A
:100380008312BF002721BF012721831605150430E2
:10039000F700F70BC92985140330F700F70BCE29B6
:1003A0008312851CD1290511831605110430F7002D
:1003B000F70BD8298312851083168510D13083124C
:1003C000BF002721B9013908023C031C3B2A2B300E
:1003D0003907840083133908023C031DF1290030DA
:1003E000F2290130BC003C08F7000830BE00770855
:1003F000BF00831605150330F700F70BFD298514A0
:100400008312851C012A05190314051D0310F80D1C
:100410000430F700F70B0A2A831685108312851023
:10042000BE0BF929831605150330F700F70B162AC2
:10043000831205113F080319202A83160511831220
:100440000000831685148312851C242A0430F700CB
:10045000F70B282A8510831685100330F700F70B59
:100460002F2A831205118316051178087F39800021
:100470008312B90AE329831605110000851483123B
:10048000851C402A0430F700F70B442A472A000055
:10049000831605150430F700F70B4C2A8312B901B7
:1004A0003908023C031C6F2A2B303907F800FA0187
:1004B0000318FA0A7808BA007A08BB002B3039070B
:1004C000840083130008BC00BD006D213A0884003D
:1004D00083133B18831778088000B90A502A080054
:1004E0000030AB1F0130F800962B83160515043041
:1004F000F700F70B792A85140330F700F70B7E2AF3
:1005000083120511831605110430F700F70B862AB4
:100510008312851083168510D0308312BF002721E7
:10052000BF012721BD013D08023C031CA12A2B303D
:100530003D07840083130008BE00BF002721BD0AC9
:10054000932A83160511000085148312851CA62AA0
:100550000430F700F70BAA2AAD2A00008316051510
:100560000430F700F70BB22A83120800AB13752290
:10057000992B3D08F8013C020318C12A3C08F700FA
:10058000CD2AF7010830BE00BC0DF70D3D087702FB
:100590000318F700F80DBE0BC42A08003A08F63E0F
:1005A0000318F22A0A3EF52AEE30F800F42A223027
:1005B000F800F42AD630F800F42A7630F800F42A4D
:1005C0003A30F800F42A7C30F800F42AFC30F800C5
:1005D000F42A2E30F800F42AFE30F800F42A7E3097
:1005E000F800F42A0030F80008000A108A140A11F2
:1005F000FC3E03188A0A8200D42AD72ADA2ADD2A86
:10060000E02AE32AE62AE92AEC2AEF2A2C08BC0091
:100610000A30BD00B9227708B900BA00CE227808A6
:10062000B0002C08BC000A30BD00B9227808B9001F
:10063000BA00CE227808B1002D08BC000A30BD00F7
:10064000B9227708B900BA00CE227808B2002D0886
:10065000BC000A30BD00B9227808B900BA00CE2229
:100660007808B3000B138B138B1B332BC520C030C2
:100670008B0408003A08BC000A30BD00B922780E8D
:10068000BB00F030BB053A08BC000A30BD00B922FF
:1006900077083B07F80008003B08AD003C08AC00B9
:1006A000AB0175223B08BD006D217808AD003C0808
:1006B000BD006D217808AC00F72C03081F398300BA
:1006C000AF01B501B4013614B6143611B6113616A1
:1006D000B6163617B6173714B7143715B7150730CF
:1006E0009F0083130130B800AE012E08073C031CA5
:1006F000932B3808B0003808B1003808B200380829
:10070000B3000B138B138B1B822BC520C0308B04C3
:100710000230B900FA30BA00FB20B90B8A2B031063
:10072000B80DAE0A752B1829A221702AF8080319F2
:10073000B62A83160108C0390738810083128B1648
:10074000C0308B04AF08031DF92BB61CBF2B0B1355
:100750008B138B1BA82BA2213230BA00FB202A0856
:100760002D02031DAB2B29082C02031DAB2B3614C5
:100770004B30AE00B501B401B610C0308B04361C4E
:10078000C32B06233610831606148312361206185E
:100790003616831686148312B6128618B61683167A
:1007A00006158312361306193617361EDC2B37183A
:1007B000DC2B0130AF00EF2BB61EE92BB718E92B6D
:1007C000B6140430B900FA30BA00FB20B90BE32BA1
:1007D000EF2B361FEF2B3719EF2B8A01002837102C
:1007E000361A3714B710B61AB7143711361B371527
:1007F000A22B8316851183128511B001B101361425
:100800002530AE002F0B5C2C831606148312361293
:1008100006183616831686148312B6128618B61674
:10082000361C302C2D08BC000A30BD00B9227708D8
:10083000B900BA00CE227808B2002D08BC000A30F8
:10084000BD00B9227808B900BA00CE227808B300FA
:100850000B138B138B1B292CC520C0308B04361037
:10086000361E372C3718372C0230AF00552CB61EE9
:100870003E2CB7183E2C0530AF00552C361D4A2CA7
:10088000AD08031D462C1730AD00472CAD033611C3
:100890003614552CB61D552C2D08173C031D522C13
:1008A000AD01532CAD0AB61136143710361A371471
:1008B000B710B61AB714022CB201B30136142F08C0
:1008C000023C031DBB2C8316061483123612061835
:1008D0003616831686148312B6128618B616361C80
:1008E0008F2C2C08BC000A30BD00B9227708B90053
:1008F000BA00CE227808B0002C08BC000A30BD0037
:10090000B9227808B900BA00CE227808B1000B13DA
:100910008B138B1B882CC520C0308B043610361EE1
:10092000962C3718962C0330AF00B42CB61E9D2C95
:10093000B7189D2C0530AF00B42C361DA92CAC087F
:10094000031DA52C3B30AC00A62CAC03361136148D
:10095000B42CB61DB42C2C083B3C031DB12CAC01AF
:10096000B22CAC0AB61136143710361A3714B71039
:10097000B61AB7145F2C06232F08033C031DE02C86
:10098000831606148312361206183616831686143A
:100990008312B6128618B616361ED32C3718D32CEF
:1009A0000430AF00D92CB61ED92CB718D92C05307D
:1009B000AF003710361A3714B710B61AB714BC2C5C
:1009C0002F08043C031D002D0B138B138B1BE52CF0
:1009D0002D08BA003A237808B9002C08BA003A2347
:1009E0007808BA003908BB007808BC004C2BC0302E
:1009F0008B04B61036144B30AE00B501B401AF0114
:100A00002F08053C031D062DB614AF01A22B630071
:02400E00023F6F
:00000001FF
;PIC16F628A
;CRC=EDB3  CREATED="02-oct.-14 13:36"
