:1000000000308A00AE2A0000FF00030E8301A10029
:100010007F08A0000A08A8008A01A00E0408A20018
:100020007708A3007808A4007908A5007A08A6003C
:100030007B08A700831383128C308400801E222843
:100040008C1A77298C308400001C28280C186F2A01
:100050008B1E2C280B19C929220884002308F700BD
:100060002408F8002508F9002608FA002708FB00F4
:1000700028088A00210E8300FF0E7F0E0900580811
:10008000203A031901290D3A031904291D3A0319CD
:100090000729013A03190A29033A03190D29013ADC
:1000A00003191029073A03191329013A03191629CC
:1000B000033A03191929013A03191C290F3A0319A4
:1000C0001F29013A03192229783A03192529203AD0
:1000D00003192529233A03192829203A0319282925
:1000E000213A03192B29203A03192B29273A0319FE
:1000F0002E29203A03192E29213A03193129203AB1
:1001000003193129233A03193429203A03193429D0
:10011000213A03193729203A031937292F3A0319AD
:100120003A29203A03193A29213A03193D29203A5C
:1001300003193D29233A03194029203A031940297C
:10014000213A03194329203A03194329273A03196D
:100150004629203A03194629213A03194929203A08
:1001600003194929233A03194C29203A03194C2928
:10017000213A03194F29203A03194F293F3A03190D
:100180005229203A03195229213A03195529203AB4
:1001900003195529233A03195829203A03195829D4
:1001A000213A03195B29203A03195B29273A0319DD
:1001B0005E29203A03195E29213A03196129203A60
:1001C00003196129233A03196429203A0319642980
:1001D000213A03196729203A031967292F3A03198D
:1001E0006A29203A03196A29213A03196D29203A0C
:1001F00003196D29233A03197029203A031970292C
:1002000073297F30F80076293F30F8007629403096
:10021000F80076297930F80076292430F80076291C
:100220003030F80076291930F80076291230F800BD
:1002300076290230F80076295830F8007629003007
:10024000F80076291030F80076292030F800762959
:100250000330F80076292730F80076292130F8009D
:1002600076290430F80076290E30F800762910300F
:10027000F80076290930F80076294F30F800762901
:100280006130F80076290930F80076294330F8000B
:1002900076294830F80076292B30F800762923306B
:1002A000F80076290C30F80076291830F800762905
:1002B0002F30F80076291230F80076290730F80040
:1002C00076296330F80076296330F80076296330A8
:1002D000F80076290930F80076291130F8007629DF
:1002E0002430F80076297F30F800762900348C1EFF
:1002F00077291A08D5005508213C031D8929AA0130
:10030000AB010130AC007F30AE00AF00B000B100F7
:10031000C5295508243C031D8F29AC01C529550862
:100320002A3C031D99290130CF00D0000E30CE00A9
:10033000C5295508233C031DA129CF010F30CE004C
:10034000C52955080F3C031CA8295508CE00C5290E
:10035000AC080319C5292E302A07F800FA01031842
:10036000FA0A7808D6007A08D7005508D8003F2046
:100370005608840083135718831778088000AA0A48
:100380002A08203C031DC529AC018C128C128A114D
:100390002C2883168510831285108316051083126E
:1003A0000510831605118312051183160612831298
:1003B00006125118DD298613DE2986178316861347
:1003C0008312D118E5290613E629061783160613AA
:1003D00083125119ED298612EE298616831686128C
:1003E000831251082B07AD002A082D02031C0C2A8A
:1003F0002A08033C0318092A51082B07F8002A0889
:100400007802AD002E302D07840083130008D6003B
:100410000B2A7F30D600122A2E302D07840083133A
:100420000008D6004E08F7005108F80003191C2AEE
:100430000310F70CF80B182A5710771857140730C9
:10044000D500D51B4A2A5508073C031D302A5718EA
:100450002B2A05102C2A051483160510412A831215
:100460005608F7005508F80003193A2A0310F70C4C
:10047000F80B362A77183E2A05103F2A05148316F2
:100480000510051183120515831605118312051138
:10049000D503212A8316851083128514831606122C
:1004A00083120616D10A5108033C0318582AD101B9
:1004B00052080319D303D20B6C2AD308031D6C2AEC
:1004C0002A08043C0318692AAB0A2A082B020319DC
:1004D000AB01D301F430D2000B118A112C28CF08C4
:1004E0000319AB2AD0080319902A4E080E3C031DAD
:1004F0007C2A1D30CE008F2A4E081D3C031D832A06
:100500003B30CE008F2A4E083B3C031D8A2A7730B1
:10051000CE008F2A4E08773C031D8F2AD001AB2ACC
:100520004E08773C031D972A3B30CE00AB2A4E087D
:100530003B3C031D9E2A1D30CE00AB2A4E081D3CBD
:10054000031DA52A0E30CE00AB2A4E080E3C031D1B
:10055000AB2A0130D0000C108A112C28840183139F
:100560001F30830583168E1519309900A630980028
:1005700090308312980007309F0083160108C0391D
:1005800002388100A5308312900083168C168312E6
:100590008B1683160C14C03083128B04D1010A30E1
:1005A000AA00AB01A9018B1BA9178B134230D800FD
:1005B0003F20A91B8B177808AE00A9018B1BA91738
:1005C0008B134530D8003F20A91B8B177808AF004C
:1005D000A9018B1BA9178B135330D8003F20A91BEF
:1005E0008B177808B000A9018B1BA9178B134D300E
:1005F000D8003F20A91B8B177808B100A9018B1BDD
:10060000A9178B134530D8003F20A91B8B177808FA
:10061000B200A9018B1BA9178B134C30D8003F20C7
:10062000A91B8B177808B300A9018B1BA9178B1383
:100630004C30D8003F20A91B8B177808B400A901C3
:100640008B1BA9178B134530D8003F20A91B8B1794
:100650007808B500A9018B1BA9178B134830D80067
:100660003F20A91B8B177808B600A9018B1BA9177F
:100670008B132030D8003F20A91B8B177808B700B8
:100680000E30CE000130CF00D301F430D200013063
:06069000D000492B6300BD
:02400E00183F59
:00000001FF
; 
;CRC=134A  CREATED="12-juil.-11 12:55"
