:0400000068EF11F0A4
:08000800046ED8CF05F0E0CF33
:1000100006F00001E9CF0CF0EACF07F0E1CF08F0DD
:10002000E2CF09F0D9CF0AF0DACF0BF0F3CF12F01C
:10003000F4CF13F0FACF14F0F5CF15F0F6CF16F099
:10004000F7CF17F000C00EF001C00FF002C010F0A3
:1000500003C011F0F2AA30EF00F0F2B44BEF06F05B
:100060000EC000F00FC001F010C002F011C003F08C
:100070000CC0E9FF07C0EAFF078E08C0E1FF09C016
:10008000E2FF0AC0D9FF0BC0DAFF12C0F3FF13C0B2
:10009000F4FF14C0FAFF15C0F5FF16C0F6FF17C035
:1000A000F7FF045006C0E0FF05C0D8FF1000F76A54
:1000B000BE0FF66E000EF7220900F55012005765CC
:1000C0006C636F6D6520746F20202020202050729B
:1000D000617965722043616C6C6572005245474CD2
:1000E000414745204845555245202020253032645F
:1000F0003A25303264005245474C4147452044413F
:10010000544520202020253032642F253032642FA2
:100110002530326400005245474C4147452050523B
:1001200049455245530046414A522020202530324D
:10013000643A253032640000534855525551202509
:100140003032643A25303264000054485548522019
:1001500020253032643A2530326400004153522069
:10016000202020253032643A2530326400004D4191
:100170004748522E20253032643A25303264000040
:1001800049534841412020253032643A25303264B9
:100190000000444946465553455220415A414E00BD
:1001A000504C4159000053544F500000434F4E46AD
:1001B0002E2056494C4C4520253032640000080E54
:1001C000016E110E006E002EFED78A929392110ED0
:1001D000006E002EFED701013E378A90D8B0938082
:1001E000D8A09390938281A2FED7012E01D002D095
:1001F0000001E7D7110E006E002EFED78A9293926F
:1002000000009380110E006E002EFED7110E006EBE
:10021000002EFED7938281A2FED7016A110E006ED6
:10022000002EFED781B001808A9293928A9093909B
:100230000001000C080E0101416F00C042F19380E3
:10024000110E006E002EFED7938281A2FED781B0E0
:10025000D88081A0D8900136110E006E002EFED7F6
:1002600093928A92412FEBD79380110E006E002E4D
:10027000FED78A904251D8A493900000938281A225
:10028000FED7110E006E002EFED78A929392110EA9
:10029000006E002EFED78A9093900001000C0101A1
:1002A0002F6B2750205CD8A42F8B26501F5CD8A41E
:1002B0002F8925501E5CD8A42F8723501C5CD8A4FE
:1002C0002F8522501B5CD8A42F8321501A5CD8A400
:1002D0002F812FC101F00001000CEA6A1A0EE96EAD
:1002E000E26A210EE16E070E016EE6CFEEFF012EEF
:1002F000FCD79380110E006E002EFED79382110E54
:10030000006E002EFED78A909390110E006E002E84
:10031000FED78A929392D00E01013E6F00014FDF0B
:1003200001013E6B00014BDF9380110E006E002E29
:10033000FED79382110E006E002EFED781A2FED74B
:100340008A909390110E006E002EFED78A9293929F
:10035000D10E01013E6F000132DF01012E6B2E51E3
:10036000060815E3036A2E51210FE96E000E0320E3
:10037000EA6E2E51060802E1000E01D0010E006E59
:10038000000158DF01C0EFFF01012E2BE8D7939049
:100390000000938281A2FED7110E006E002EFED7C0
:1003A00000D000009380110E006E002EFED70001D9
:1003B00076DF0150000C92908990080E016E00D0FB
:1003C0000000018E10D0019E010138330001D8B029
:1003D0008980D8A08990018C06D0019C012EF4D789
:1003E00000D000008980010E006EE96AE92EFED778
:1003F000002EFBD7990EE96EE92EFED7000001BE54
:10040000E2D701BCEAD7000C210E0101386F0001D0
:10041000D2DF240E0101386F0001CDDF0F0E010184
:10042000386F0001C8DF000C37C1A8F0010137B1F7
:1004300002D0899601D08986929637B302D08994EA
:1004400001D08984929437B502D0899201D08982F3
:1004500092920001A95301E1D7DF000C010E0101C6
:10046000376F0001E1DFA95301E130D0210E010116
:10047000386F0001A0DF2338006E0F0E0016005009
:10048000300F0101326F386F000195DF23500F0BE1
:10049000300F0101326F386F00018DDF2238006E9E
:1004A0000F0E00160050300F0101326F386F00013F
:1004B00082DF22500F0B300F0101326F386F0001C5
:1004C0007ADF240E0101386F000175DF000C94946F
:1004D0008B94080E016E00D00000018E10D0019E9A
:1004E000010130330001D8B08B84D8A08B94018CEB
:1004F00006D0019C012EF4D700D000008B84CA0ED8
:10050000E96EE92EFED7000001BEE9D701BCF1D7A4
:10051000000CF29CF29EF2BEFDD7500E0101306F2E
:100520000001D5DF010EF66FC00EF212000C070EAF
:100530000101376F000178DFA95301E170D0210E6E
:100540000101386F000137DF01013039006E0F0EF5
:1005500000160050300F336F386F00012CDF01019F
:1005600030510F0B300F336F386F000124DF2D0E29
:100570000101386F00011FDF01013139006E0F0EDC
:1005800000160050300F336F386F000114DF010187
:1005900031510F0B300F336F386F00010CDF2D0E10
:1005A0000101386F000107DF320E0101386F0001D1
:1005B00002DF300E0101386F0001FDDE010132392A
:1005C000006E0F0E00160050300F336F386F0001B1
:1005D000F2DE010132510F0B300F336F386F000123
:1005E000EADE200E0101386F0001E5DE200E010178
:1005F000386F0001E0DE200E0101386F0001DBDE04
:10060000200E0101386F0001D6DE240E0101386F83
:100610000001D1DE0F0E0101386F0001CCDE000CAD
:1006200095928C92080E016E00D00000018E10D0C1
:10063000019E010134330001D8B08C82D8A08C9285
:10064000018C06D0019C012EF4D700D000008C82D2
:10065000010E006EE96AE92EFED7002EFBD7990E37
:10066000E96EE92EFED7000001BEE2D701BCEAD751
:10067000000C929A899A080E016E00D00000018E3B
:1006800010D0019E010134330001D8B0898AD8A06E
:10069000899A018C06D0019C012EF4D700D000006D
:1006A000898A010E006EE96AE92EFED7002EFBD77B
:1006B000990EE96EE92EFED7000001BEE2D701BC1B
:1006C000EAD7000C0101315305E1346B0001A8DFCA
:1006D00004D00101346B0001CCDF000C0101325366
:1006E00006E133C134F100019BDF05D0010133C1C4
:1006F00034F10001BEDF000CA9530AE10101316BA6
:100700000001E0DF010E0101316F0001DBDF1ED0CF
:10071000050E24240101306F3051060802E2070E55
:10072000305F010E316F3051016E04E0D8903137E7
:10073000012EFCD7010E326F31C133F10001CEDF43
:100740000101326B30C133F10001C8DF000C01013F
:100750003739006E0F0E001600500A0DF3CF38F136
:1007600037510F0B3825016E0001000C0101366B6B
:10077000356B2650010804E21F0E3527000E362384
:100780002650020804E21D0E3527000E362326509F
:10079000030804E21F0E3527000E362326500408F6
:1007A00004E21E0E3527000E36232650050804E20B
:1007B0001F0E3527000E36232650060804E21E0EB3
:1007C0003527000E36232650070804E21F0E352772
:1007D000000E36232650080804E21F0E3527000EAF
:1007E00036232650090804E21E0E3527000E362354
:1007F0002650100804E21F0E3527000E362326501F
:10080000110804E21E0E3527000E3623265012086A
:1008100004E21F0E3527000E362325C037F10001F4
:1008200096DF010E015C01013527000E362335C12C
:1008300001F036C102F00001000C0101375139030B
:10084000F3CF01F0F4CF00F03A03F3500026385113
:100850003903F3500020026E0001000C016A026AA5
:10086000006A036A01013A5102E1395118E0100EA1
:100870003B6FD89037373837003603363A51035C30
:1008800002E13951005C07E33951005ED8A003064C
:100890003A51035ED880013602363B2FEAD7000179
:1008A000000C010136353B6F37353C6F3B373C3729
:1008B0003B373C373B373C373B373C373B373C37A4
:1008C0003B373C37800E3B179380110E006E002E95
:1008D000FED79382110E006E002EFED78A90939061
:1008E000110E006E002EFED78A92939235C13EF112
:1008F000000165DC010E01013E6F3B0E3D6F010EF4
:100900003D25016E000E3E21036E01C0E9FFEA6E37
:10091000EFCF3DF13DC13EF1000151DC3BC13EF165
:100920004EDC9380110E006E002EFED79382110EC6
:10093000006E002EFED781A2FED78A909390110EF2
:10094000006E002EFED78A92939201013551010963
:100950003D6F3E6F000133DC01013A6B3A517F0875
:1009600015E3036A3A513825E96E39510320EA6EDE
:100970003A517F0802E1000E01D0010E006E000125
:1009800059DC01C0EFFF01013A2BE8D7939000003A
:10099000938281A2FED7110E006E002EFED700D0EA
:1009A00000009380110E006E002EFED70001000C97
:1009B000DDDE02C032F101C031F10101386B260EDB
:1009C000376F3A6B30C139F1000137DF02C036F1C1
:1009D00001C035F132C138F131C137F101013A6B53
:1009E0000A0E396F00013ADF01500101352702502C
:1009F0003623010E3525336F000E3621346FA00EDD
:100A0000356F34C137F133C136F1396B280E386F89
:100A1000000147DF32C138F131C137F101013A6BD2
:100A20000A0E396F00011ADF00C035F1010103C061
:100A300036F103C038F100C037F13A6B0C0E396F54
:100A40000001FBDE02C003F00150280F0101356FE9
:100A5000000E0220366FEA6AAB0EE96E36C1E2FF85
:100A600035C1E1FF0C0E016EE6CFEEFF012EFCD783
:100A70000001000C34C137F1D7DCA95301E135D0B6
:100A8000210E0101386F000196DC01013539006E3D
:100A90000F0E00160050300F376F386F00018BDCDF
:100AA000010135510F0B300F376F386F000183DCB8
:100AB00001013639006E0F0E00160050300F376FEF
:100AC000386F000178DC010136510F0B300F376FA2
:100AD000386F000170DC240E0101386F00016BDCFF
:100AE0000D0E0101386F000166DC000C010130C100
:100AF000E9FF31C1EAFFEFCF32F1010E3025E96E97
:100B0000000E3121EA6EEFCF33F1060E346F32C1A1
:100B100035F133C136F10001ADDF020E01013025A0
:100B2000E96E000E3121EA6EEFCF32F1030E30256F
:100B3000E96E000E3121EA6EEFCF33F1040E346F0F
:100B400032C135F133C136F1000194DF040E0101E9
:100B50003025E96E000E3121EA6EEFCF32F1050E3D
:100B60003025E96E000E3121EA6EEFCF33F1030E2E
:100B7000346F32C135F133C136F100017BDF060E2F
:100B800001013025E96E000E3121EA6EEFCF32F11E
:100B9000070E3025E96E000E3121EA6EEFCF33F1FA
:100BA000050E346F32C135F133C136F1000162DF19
:100BB000080E01013025E96E000E3121EA6EEFCFFB
:100BC00032F1090E3025E96E000E3121EA6EEFCFC9
:100BD00033F1020E346F32C135F133C136F1000109
:100BE00049DF0A0E01013025E96E000E3121EA6E5F
:100BF000EFCF32F10B0E3025E96E000E3121EA6E97
:100C0000EFCF33F1346B32C135F133C136F100012E
:100C100031DF000C01012EA326D023C030F122C009
:100C200031F100011BDCAB51235C03E1AC51225CD0
:100C300018E0AF51235C03E1B051225C12E0B151E6
:100C4000235C03E1B251225C0CE0B351235C03E16D
:100C5000B451225C06E0B551235C04E1B651225C3C
:100C600001E157DC01012EA713D025C030F126C0C9
:100C700031F127C032F100015ADC3EDDAAC030F16B
:100C800097DE0101316BAB0E306F00012FDF0101E8
:100C9000000156EF06F06DEC01F001C02DF10101ED
:100CA0002D5305E02DC12EF10001B4D701011253DF
:100CB000D8A41207F294000130EF00F0010EEA6EA2
:100CC0001F0EE96EEF500EE00F0E016E006A002E4F
:100CD000FED7012EFBD78F0E006E002EFED7000030
:100CE000EF2EF2D7000C0101176703D0186702D06E
:100CF00007D0182B16C1EEFF172FFCD7182FFAD7E5
:100D00000001000CEA6A1A0EE96E0101166B186BFD
:100D1000070E176F0001E7DFEA6A210EE96E010195
:100D2000166B186B070E176F0001DDDFA7EF11F0D0
:100D3000000E21AE010E016EB1EF11F09380110E85
:100D4000006E002EFED79382110E006E002EFED78D
:100D50008A909390110E006E002EFED78A92939285
:100D6000196AF2BE198EF29ED00E01013E6F00018B
:100D7000DFEC00F019BEF28E196AF2BE198EF29EF7
:100D800001013E6B0001DFEC00F019BEF28E0101A3
:100D90001C6B1C51060817E3036A1C51210FE96EF6
:100DA000000E0320EA6EEFCF1DF1196AF2BE198E14
:100DB000F29E1DC13EF10001DFEC00F019BEF28E83
:100DC00001011C2BE6D793900000938281A2FED7ED
:100DD000110E006E002EFED700D000009380110E81
:100DE000006E002EFED70001000C219EA7DFB5EF9C
:100DF00011F09380110E006E002EFED79382110E1B
:100E0000006E002EFED78A909390110E006E002E79
:100E1000FED78A929392196AF2BE198EF29ED00E74
:100E200001013E6F0001DFEC00F019BEF28E196A7D
:100E3000F2BE198EF29E080E01013E6F0001DFEC3A
:100E400000F019BEF28E9380110E006E002EFED7B8
:100E50009382110E006E002EFED781A2FED78A90DB
:100E60009390110E006E002EFED78A929392196A0B
:100E7000F2BE198EF29ED10E01013E6F0001DFEC31
:100E800000F019BEF28E006A196AF2BE198EF29E47
:100E90001AEC01F019BEF28E01C016F19390000019
:100EA000938281A2FED7110E006E002EFED700D0D5
:100EB00000009380110E006E002EFED7010116C1B6
:100EC00001F00001BCEF11F0196AF2BE198EF29E1A
:100ED0000101386B260E376F3A6B1BC139F10001E7
:100EE000ACDC19BEF28E02C01EF101C01DF1196A00
:100EF000F2BE198EF29EA00E0101356F1EC137F1B0
:100F00001DC136F1396B280E386F0001CADC19BEDD
:100F1000F28EEA6AB70EE96EE26A280EE16E3F0EC3
:100F2000016EE6CFEEFF012EFCD701011C6B1C51B8
:100F30000F0835E3036A1C51B70FE96E000E03205A
:100F4000EA6EEF3C08D0036A1C51B70FE96E000E41
:100F50000320EA6EEF6A036A1C51C70FE96E000EA8
:100F60000320EA6EEF3C08D0036A1C51C70FE96EFC
:100F7000000E0320EA6EEF6A036A1C51D70FE96E78
:100F8000000E0320EA6EEF3C08D0036A1C51D70F15
:100F9000E96E000E0320EA6EEF6A1C2BC8D7000131
:100FA000000C196AF2BE198EF29EAAC030F100DD63
:100FB00019BEF28EAAC01BF187DF196AF2BE198E24
:100FC000F29E23C030F122C031F12EEC02F019BEA6
:100FD000F28E196AF2BE198EF29E25C030F126C03B
:100FE00031F127C032F197EC02F019BEF28E196A86
:100FF000F2BE198EF29E7CEC03F019BEF28E196AD5
:10100000F2BE198EF29E0101316BAB0E306F000102
:101010006DDD19BEF28E000C95948C94080E016E55
:1010200000D00000018E10D0019E0101203300018C
:10103000D8B08C84D8A08C94018C06D0019C012E51
:10104000F4D700D000008C84010E006EE96AE92E0E
:10105000FED7002EFBD7990EE96EE92EFED70000D1
:1010600001BEE2D701BCEAD7000C010E01011F5FEF
:101070000DE3010EEA6E1F0EE96EEF5007E0020E5F
:10108000006E002EFED700D0EF2EF9D70001000C25
:10109000F29CF29EF2BEFDD71B0E0101206F0001F3
:1010A000BBDF020E01011B6FFA0E1F6F0001DDDFB7
:1010B00001011B2FF9D7430E206F0001ADDF020E97
:1010C00001011B6FFA0E1F6F0001CFDF01011B2F03
:1010D000F9D7C00EF2120001000CF29CF29EF2BE93
:1010E000FDD701011E6B1D511E5D15E2036A1E51E5
:1010F0001B25E96E1C510320EA6EEFCF1FF11FC1C3
:1011000020F1000189DF140E01011F6F0001D6DDFF
:1011100001011E2BE8D7C00EF2120001000C958AC7
:1011200083BAFED7080E006E0101166B008E0ED03A
:10113000009E0CD0D89083BAD8801633008C06D08D
:10114000009C002EF7D716C101F015D0010EE96EF4
:10115000000E00BE550E016E012EFED7E92EF8D707
:10116000980E00BE290E016E012EFED700BEE0D7FC
:1011700000BCE6D7DFD70001EEEF11F0F29CF29E43
:10118000F2BEFDD7196AF2BE198EF29E530E01010E
:10119000306F000167EC02F019BEF28EF66BC00EE4
:1011A000F212000CF29CF29EF2BEFDD71B0E010162
:1011B000206F000131DF020E0101196FFA0E1F6F5F
:1011C000000153DF0101192FF9D7185302E04E0E29
:1011D00001D0460E206F00011FDF020E0101196FC2
:1011E000FA0E1F6F000141DF0101192FF9D7C00E60
:1011F000F2120001000C11C1EAFF10C1E9FF010168
:1012000024C1EFFFE92AD8B4EA2AEF6A102BD8B438
:10121000112B0001000C0900F6CF1FF1F7CF20F1D0
:10122000F5CF24F1E8DF1FC1F6FF20C1F7FF010170
:101230001E2F01D002D00001EED70001000C0101E9
:101240002551016A245D03E224C100F00CD0006A3C
:10125000080E266F243700362551005CD8B0006E8A
:101260000136262FF7D70001000C200E01011FA91F
:10127000300E206F1EC100F01EAF07D0001E002AE6
:1012800000C01EF12D0E206F1F8F01501EC124F1D2
:10129000640E256F0001D3DF00C01EF1300E012463
:1012A0000101216F1EC124F10A0E256F0001C7DF65
:1012B000300E00240101236F300E0124226F20C163
:1012C00000F01FA702D01FAF1F951FB90BD01FAF93
:1012D00022D01FB520D000C021F11FB31CD000C008
:1012E00022F119D0300E215D16E100C021F1200E4F
:1012F000206F1FA704D01F951F831FAF1F93300EB1
:10130000225D09E100C022F1200E216F1FA7F7D74F
:101310001F931FAF1F911FA505D020C124F100010D
:101320006ADF01011FA305D021C124F1000163DFA1
:1013300001011FA104D022C124F100015CDF23C1FF
:1013400024F1000158DF000CF29CF29EF2BEFDD7A2
:101350001B0E0101206F00015FDE020E01011E6FF6
:10136000FA0E1F6F000181DE01011E2FF9D7470E13
:10137000206F000151DE020E01011E6FFA0E1F6F79
:10138000000173DE01011E2FF9D7300E1C251E6FE0
:10139000206F000141DE020E01011E6FFA0E1F6F69
:1013A000000163DE01011E2FF9D7300E1D251E6FCF
:1013B000206F000131DE020E01011E6FFA0E1F6F59
:1013C000000153DE01011E2FF9D7C00EF2120001F9
:1013D000000C0900F5520CE0F6CF1BF1F7CF1CF121
:1013E000F5CF24F108DF1BC1F6FF1CC1F7FFF1D7D1
:1013F000000CEF520FE0EACF1CF1E9CF1BF1EFCF69
:1014000024F1F9DE1CC1EAFF1BC1E9FFE92AD8B4C7
:10141000EA2AEFD706EF0DF001010D5318E1EA6A51
:10142000280EE96E000E000157EC00F00A000900DA
:10143000F550EE6E0009FBE12BDE01011C6B280E5E
:101440001B6F1D0E1D6F000148DEFAD201010D5108
:101450000208D8A47BD00E5343E1196AF2BE198E5C
:10146000F29E23C037F10001A7EC03F019BEF28E03
:1014700001C01BF1196AF2BE198EF29E22C037F12B
:10148000A7EC03F019BEF28E01C01CF10101116B33
:10149000280E106FDC0EF66E000EF76E100E1E6F2B
:1014A0000001B9DE1BC11EF1010E01011F6F000119
:1014B000DCDE3A0E0101246F00019DDE1CC11EF12D
:1014C000010E01011F6F0001D0DEE2DD01011C6B86
:1014D000280E1B6F150E1D6F0001FFDD35D00101B9
:1014E0000E2D01D003D00E5102082FE11C6B010E0E
:1014F0001D6F000129DF0101116B280E106F01C162
:101500001EF1010E1F6F0001B0DE3A0E0101246FC3
:10151000000171DE02C11EF1010E01011F6F000109
:10152000A4DE01011C6B280E1B6F050E1D6F000150
:10153000D4DD01010E2D02D0000E01D0030E1C6F70
:10154000010E1D6F000100DF01017BD20D51030868
:10155000D8A4B2D00E535BE1196AF2BE198EF29E86
:1015600025C037F10001A7EC03F019BEF28E01C0CF
:101570001BF1196AF2BE198EF29E26C037F1A7EC54
:1015800003F019BEF28E01C01CF1196AF2BE198E69
:10159000F29E27C037F1A7EC03F019BEF28E01C00E
:1015A0001DF10101116B280E106FF60EF66E000E84
:1015B000F76E100E1E6F00012EDE1BC11EF1010E14
:1015C00001011F6F000151DE2F0E0101246F000188
:1015D00012DE1CC11EF1010E01011F6F000145DE6C
:1015E0002F0E0101246F000106DE1DC11EF1010E48
:1015F00001011F6F000139DE4BDD01011C6B280E5C
:101600001B6F180E1D6F000168DD54D001010E2DF7
:1016100001D006D00E51020803E00E5103084BE141
:101620001C6B010E1D6F00018FDE0101116B280E76
:10163000106F01C11EF1010E1F6F000116DE2F0E8B
:101640000101246F0001D7DD02C11EF1010E01016D
:101650001F6F00010ADE2F0E0101246F0001CBDD98
:1016600003C11EF1010E01011F6F0001FEDD01012A
:101670001C6B280E1B6F080E1D6F00012EDD010173
:101680000E2D07D01C6B010E1D6F00015DDE12D008
:1016900001010E51020808E1030E1C6F010E1D6FBF
:1016A000000152DE07D00101060E1C6F010E1D6FF6
:1016B00000014ADE0101C5D10D510508D8A419D198
:1016C0000E5316E10001E4DC0101116B280E106FCE
:1016D000160EF66E010EF76E00017BDE01011C6B2B
:1016E000280E1B6F0F0E1D6F0001F7DCE3D0010108
:1016F0000E2D01D003D00E51020820E1116B280EEF
:10170000106F260EF66E010EF76E070E1E6F0001AB
:1017100082DD01C11EF1010E01011F6F0001A5DD77
:101720003A0E0101246F000166DD02C11EF1010EB7
:1017300001011F6F000199DDBDD001010E510308A9
:1017400003E00E51040820E1116B280E106F380ED3
:10175000F66E010EF76E070E1E6F00015CDD03C111
:101760001EF1010E01011F6F00017FDD3A0E010124
:10177000246F000140DD04C11EF1010E01011F6F45
:10178000000173DD97D001010E51050803E00E51F1
:10179000060820E1116B280E106F4A0EF66E010E3E
:1017A000F76E070E1E6F000136DD05C11EF1010E3A
:1017B00001011F6F000159DD3A0E0101246F000184
:1017C0001ADD06C11EF1010E01011F6F00014DDD82
:1017D00071D001010E51070803E00E51080820E105
:1017E000116B280E106F5C0EF66E010EF76E070E71
:1017F0001E6F000110DD07C11EF1010E01011F6FF8
:10180000000133DD3A0E0101246F0001F4DC08C150
:101810001EF1010E01011F6F000127DD4BD00101F8
:101820000E51090803E00E510A0820E1116B280E41
:10183000106F6E0EF66E010EF76E070E1E6F000132
:10184000EADC09C11EF1010E01011F6F00010DDD6F
:101850003A0E0101246F0001CEDC0AC11EF1010E17
:1018600001011F6F000101DD25D001010E510B08A0
:1018700003E00E510C081FE1116B280E106F800E53
:10188000F66E010EF76E070E1E6F0001C4DC0BC171
:101890001EF1010E01011F6F0001E7DC3A0E01018C
:1018A000246F0001A8DC0CC11EF1010E01011F6FA5
:1018B0000001DBDC01010E531BE01C6B010E1D6FF0
:1018C000000142DD01011C6B280E1B6F0C0E1D6F09
:1018D000000103DC01010E51010B010802E1070EBA
:1018E00001D00A0E1C6F010E1D6F00012DDD0101DC
:1018F000A8D00D2D51D00E5316E1116B280E106F8C
:10190000920EF66E010EF76E000163DD48EC08F0F2
:1019100001011C6B280E1B6F0D0E1D6F00016DEC7D
:1019200008F038D001010E2D1AD0116B280E106F5F
:10193000A00EF66E010EF76E00014BDD01011C6B6F
:10194000010E1D6F000100DD01011C6B280E1B6FD5
:10195000040E1D6F00016DEC08F01CD001010E514A
:10196000020819E1116B280E106FA60EF66E010E1B
:10197000F76E00012EDD01011C6B010E1D6F0001D1
:10198000E3DC01011C6B280E1B6F040E1D6F0001B0
:101990006DEC08F0010155D00D51040852E10E53D1
:1019A00009E1AAC01BF1000164EC07F0AAC001F133
:1019B00006D0010101C11BF1000164EC07F0010137
:1019C000116B280E106FAC0EF66E010EF76E0C0E3A
:1019D0001E6F000120DC01C11EF1010E01011F6F0D
:1019E000000143DC48EC08F001011C6B280E1B6F62
:1019F0000E0E1D6F00016DEC08F00101116B280E39
:101A0000106FEA6AD70EE96E0001F3D4280E0101C7
:101A1000105D1A6F1C6B010E1D6F000195DC01013A
:101A20001C6B280E1B6F1AC11DF100016DEC08F034
:101A300001010E2D06D01C6B010E1D6F000184DC10
:101A400001010001000C01010D51020811E10E2DF0
:101A500006D00001FE6B170EFF6F08D001010E517A
:101A6000020805E10001FE6B3B0EFF6F01013ED055
:101A70000D5103081CE10E2D07D0010E0001FE6F71
:101A80001F0EFF6F12D001010E51020807E1010E77
:101A90000001FE6F0C0EFF6F08D001010E5103080C
:101AA00005E10001FE6B630EFF6F01011FD00D51B8
:101AB000050812E10E530FE00E51010B010806E17B
:101AC0000001FE6B170EFF6F05D001010001FE6BD8
:101AD0003B0EFF6F01010AD00D51040807E10E2DE6
:101AE00005D00001FE6B0C0EFF6F01010001000C20
:101AF000FA510101165D04E10001FB2B06D0010142
:101B000016C1FAF0010E0001FB6FFB51030802E061
:101B1000000E01D0010EFC6FFC5304E101010DC168
:101B200001F0A3D101011651420810E10001FB6B45
:101B3000BEEC08F00101186B0001D2EC08F00101C5
:101B40000E6B0D6B000168DC8DD10101165141084F
:101B500006E10001FB6B050E01010F6F84D11651E8
:101B60004608D8A49BD00001FB6B01010D2B0D5141
:101B70000508D8A00D6B0E6B0001FD6B01010D5126
:101B800002081DE1196AF2BE198EF29E23C037F1D8
:101B90000001A7EC03F019BEF28E01C001F1196A31
:101BA000F2BE198EF29E22C037F1A7EC03F019BEE7
:101BB000F28E01C002F1020E0101006F69D00D51D9
:101BC000030829E1196AF2BE198EF29E25C037F189
:101BD0000001A7EC03F019BEF28E01C001F1196AF1
:101BE000F2BE198EF29E26C037F1A7EC03F019BEA3
:101BF000F28E01C002F1196AF2BE198EF29E27C060
:101C000037F1A7EC03F019BEF28E01C003F1030E09
:101C10000101006F3DD00D51040805E1AAC001F19A
:101C2000010E006F35D00D5105082EE1176B1751CD
:101C30000B0827E3036A1751010F016E010E0322FF
:101C400001C018F103C019F1036A1751AB0FE96E17
:101C5000000E0320EA6EEFCF1AF1196AF2BE198E58
:101C6000F29E1AC137F10001A7EC03F019BEF28E03
:101C700019C1EAFF18C1E9FF01C0EFFF0101172BED
:101C8000D6D70C0E006F04D00D2D02D0020E006FBF
:101C90000001D9DE0CEC0AF0E5D0010116514C0828
:101CA00033E10001FB6B01010E5306E1010E0E6FE3
:101CB0000001C9DE25D001010D51020803E1010E2A
:101CC0000F6F1BD00D51030803E1020E0F6F15D0EB
:101CD0000D51050803E1040E0F6F0FD00D510408DC
:101CE00003E1030E0F6F09D00D2D07D00E2D03D089
:101CF000060E0F6F02D0070E0F6F0E6B0D6B0001FB
:101D00000CEC0AF0AFD0010116514A0818E10E534D
:101D100015E00001FB6B01010E2B0E51005D02E28C
:101D2000010E0E6F0001FD2B010100510001FD5D50
:101D3000D8B0FD6B88DE0CEC0AF0010194D016518E
:101D4000490818E10E5315E00001FB6B01010E0775
:101D50000E5302E100C10EF10001FD07FD3D05D06B
:101D6000010E0101005D0001FD6F6DDE0CEC0AF05B
:101D7000010179D01651480835E10E5332E00001D7
:101D8000FB6B036AFD51010F016E010E032201017D
:101D900003C019F1036A0001FD51010FE96E010E44
:101DA0000320EA6E010EEF24010119C1EAFF01C010
:101DB000E9FFEF6E036A0001FD51010FE96E010EAC
:101DC0000320EA6EEF50FF5D09E2036AFD51010F47
:101DD000E96E010E0320EA6EFEC0EFFF0CEC0AF084
:101DE000010141D016514B083EE10E533CE0000189
:101DF000FB6B036AFD51010F016E010E032201010D
:101E000003C019F1036A0001FD51010FE96E010ED3
:101E10000320EA6E010EEF5C010119C1EAFF01C067
:101E2000E9FFEF6E036A0001FD51010FE96E010E3B
:101E30000320EA6EEF3C01D00AD0036AFD51010F86
:101E4000E96E010E0320EA6EFE51EF5C09E2036ABF
:101E5000FD51010FE96E010E0320EA6EFFC0EFFF96
:101E60000CEC0AF001010DC101F00001F8EF11F0D6
:101E700019C124F10A0E0101256F00011FEC09F0C0
:101E8000013801011A6FF00E1A1719C124F10A0E58
:101E9000256F00011FEC09F0005001011A25016EA9
:101EA0000001000C01012451030B02E0000E01D0DF
:101EB000010E016E000173EF0FF00101236B1FC1D2
:101EC00022F12051010804E21F0E2227000E2323D5
:101ED000205102080DE21C0E2227000E232321C1EF
:101EE00024F10001DFD7015001012227000E232336
:101EF0002051030804E21F0E2227000E2323205145
:101F0000040804E21E0E2227000E23232051050898
:101F100004E21F0E2227000E23232051060804E2AC
:101F20001E0E2227000E23232051070804E21F0E55
:101F30002227000E23232051080804E21F0E222727
:101F4000000E23232051090804E21E0E2227000E52
:101F5000232320510A0804E21F0E2227000E232308
:101F600020510B0804E21E0E2227000E2323196ABB
:101F7000F2BE198EF29E010E386F6D0E376F3A6BFE
:101F800021C139F100011DEC04F019BEF28E01509F
:101F90000101222702502323010E215D006E003231
:101FA00000323F0E001600502227000E232322C1CC
:101FB00001F023C102F000012DEF10F0196AF2BE0A
:101FC000198EF29E1FC138F11EC137F101013A6B23
:101FD000070E396F00012EEC04F019BEF28E0101DC
:101FE00003C021F1010E0024016E000E0320036ED8
:101FF0000150000136EF10F019C125F01AC126F08A
:102000001BC127F0196AF2BE198EF29E19C137F171
:10201000A7EC03F019BEF28E01C01CF1196AF2BEE2
:10202000198EF29E1AC137F1A7EC03F019BEF28E99
:1020300001C01DF1196AF2BE198EF29E1BC137F163
:10204000A7EC03F019BEF28E01C01EF11CC11FF1F6
:102050001DC120F101C021F130D702C01DF101C026
:102060001CF102C01FF101C01EF1A8D701C024F06D
:102070009EEC06F027EF12F018C123F019C122F0F0
:10208000216A9EEC06F041EF12F09380110E006E73
:10209000002EFED79382110E006E002EFED78A907E
:1020A0009390110E006E002EFED78A929392196AB9
:1020B000F2BE198EF29ED00E01013E6F0001DFECE0
:1020C00000F019BEF28E196AF2BE198EF29E080E49
:1020D00001013E6F0001DFEC00F019BEF28E196ABB
:1020E000F2BE198EF29E16C13EF1DFEC00F019BE71
:1020F000F28E93900000938281A2FED7110E006EA3
:10210000002EFED700D000009380110E006E002E2E
:10211000FED799EF12F0948082B0FED7080E006EC1
:1021200001011C6B008E0ED0009E0CD0D89082B0A6
:10213000D8801C33008C06D0009C002EF7D71CC121
:1021400001F00BD0CA0E00BE370E016E012EFED775
:1021500000BEEAD700BCF0D7E9D70001000C0101AE
:10216000176BF80E166FF29CF29EF2BEFDD7196A3D
:10217000F2BE198EF29E590E306F000167EC02F02C
:1021800019BEF28EC8DF01C0F7F016C1E9FF17C112
:10219000EAFFEACF1BF1E9CF1AF10001BCDF1BC156
:1021A000EAFF1AC1E9FF01C0EFFF010E0101162588
:1021B000E96E000E1721EA6EEACF1BF1E9CF1AF1A2
:1021C0000001A9DF1BC1EAFF1AC1E9FF01C0EFFF4F
:1021D000C00EF212D9EF12F0EACF1EF1E9CF1DF1D5
:1021E000010117AF08D01D8F1DA91D2B161F171F2A
:1021F000162BD8B4172B1739F009196F1927E20FCE
:102200001A6F320F1C6F17510F0B1A271A271C2732
:10221000E90F1B6F1B271B2716390F0B1B271C27CA
:102220001B371C371C1F1C3716510F0B1C27193767
:10223000070E186F0A0E1B071C27FDE31A071B2742
:10224000FDE319071A27FDE318071927FDE3010E1F
:10225000EA6E180EE96E070E1D151D9DE9061D1587
:1022600007E11DB9E92A1DB903D0200E006E1CD06C
:10227000E9261C0EE95CD8B41D8DEF50006E08E114
:102280001DBD06D01DB91ED01DB702D0200E0BD02B
:102290001DAF06D02D0E006EED501D9D1D9F04D06C
:1022A0001D871D99300E0026EACF17F1E9CF16F1F0
:1022B00000C024F10001FBEC08F017C1EAFF16C1D1
:1022C000E9FF0101EE501DADD4D70001EBEF12F094
:1022D000F86AD09E078EEA6AE96AB886E10EAF6EA8
:1022E000040EB06EA60EAC6E900EAB6E929089800E
:1022F00095928C82929A898A95948C849290898006
:1023000094948B84010EA96FAA6BF66BF76BF96B33
:10231000F86BFA6BFB6BFC6B01010D6B0E6B0F6BBB
:10232000116B106B020E126FC150C00B0F09C16E02
:10233000070EB46E140E166FFA0E1F6F00015EECDE
:1023400006F00101162FF8D7000182EF06F0196A96
:10235000F2BE198EF29E6DEC01F019BEF28E98EF6E
:1023600006F0015202E1F5EF06F0850ED56EF28A15
:10237000C00EF212F9EF06F001C0AAF0D1EC07F09E
:10238000080E0101166FFA0E1F6F00015EEC06F0D9
:102390000101162FF8D7000148EC08F0EA6A280E70
:1023A000E96E000E57EC00F00A000900F550EE6EE1
:1023B0000009FBE101011C6B280E1B6F1D0E1D6F38
:1023C00000016DEC08F0958883A822D0F29CF29E63
:1023D000F2BEFDD7959C8C9C8FEF08F001C013F1E5
:1023E000959C8C8CC00EF21213C116F178EF0DF093
:1023F00001C00DF101010D5307E0010E186F00013E
:10240000D2EC08F005D00101186B0001D2EC08F005
:1024100001010F5102081FE1F29CF29EF2BEFDD7AE
:1024200001C119F1000124DD01C016F102C119F149
:102430001FDD01C017F103C119F11ADD01C018F148
:1024400016C119F117C11AF101C01BF1D5D5C00E83
:10245000F2128DD001010F2D18D0F29CF29EF2BE27
:10246000FDD701C119F1000103DD01C016F102C160
:1024700019F1FEDC01C017F116C118F101C019F104
:10248000FBD5C00EF21273D001010F51040838E1E0
:10249000136B13510B0820E3036A1351010F016EF4
:1024A000010E032201C016F103C017F1036A135194
:1024B000010FE96E010E0320EA6EEFCF18F118C18B
:1024C00019F10001D5DC17C1EAFF16C1E9FF01C00F
:1024D000EFFF0101132BDDD7F29CF29EF2BEFDD778
:1024E000196AF2BE198EF29E010E316F306F000133
:1024F00076EC05F019BEF28EC00EF21238D0010152
:102500000F51050809E10001A95302E0000E01D0B6
:10251000010EA96F2CD001010F51030810E1F29CAC
:10252000F29EF2BEFDD701C1AAF0AAC016F10001C9
:10253000ACD5C00EF212D1EC07F019D001010F5149
:1025400006080CE1196AF2BE198EF29E000189ECB0
:1025500002F019BEF28E01010F6B08D00F5107086F
:1025600005E10001BEEC08F001010F6B0001010163
:102570000F2D01D00CD00F51020809E00F510408B3
:1025800006E00F51050803E00F51030808E10F5161
:10259000040804E00001D1EC07F001010F6B0D53BA
:1025A0003EE10001F6533BE0010112532DE1000131
:1025B000D6D5010E0101186F0001D2EC08F001011F
:1025C000116B280E106F0A0EE96EF9C017F1F8C0F2
:1025D00016F1000101D6280E0101105D136F1C6B6E
:1025E0001D6B0001A4EC09F001011C6B280E1B6F90
:1025F00013C11DF100016DEC08F0F9C015F1F8C030
:1026000014F1020E0101126F0001F75308E10101FC
:10261000186B0001D2EC08F00CEC0AF0F66B00012C
:04262000D2D603000B
:020000040030CA
:0E00000024CE390E0007A1000FC00FE00F4004
:00000001FF
;PIC18F4550
;CRC=2813  CREATED="08-mars-12 12:56"
