:1000000001308A0086290000FF00030E8301A10051
:100010007F08A0000A08A7008A01A00E0408A20019
:100020007708A3007808A4007908A5007A08A6003C
:10003000831383120B1E1E288B182F28220884007E
:100040002308F7002408F8002508F9002608FA001C
:1000500027088A00210E8300FF0E7F0E09008316F9
:1000600086118312861133080C1E342899008B10D8
:100070008A111E28831605178312051B3A28AB0127
:10008000AA01A901A801AF01AE01AD010130AC0088
:10009000B5018101831605178312051F4A2801083F
:1000A000B20081010310AC0DAD0DAE0DAF0D3208E5
:1000B0004F3C031860280310AC0DAD0DAE0DAF0D15
:1000C000831605178312051F69280108C73C03180A
:1000D00060280108B20081013208C83C0319922847
:1000E0002C08A8042D08A9042E08AA042F08AB0484
:1000F0000310AC0DAD0DAE0DAF0D32084F3C031823
:100100008E282C08A8042D08A9042E08AA042F085C
:10011000AB040310AC0DAD0DAE0DAF0D3208C83CF5
:10012000031D4928B101B0010310AB0CAA0CA90CA6
:10013000A80C0130B400AC08031DA728AD08031DAE
:10014000A728AE08031DA728AF080319C428031069
:10015000B00DB10D2818AE28A8183014AF0CAE0C95
:10016000AD0CAC0CAF0CAE0CAD0CAC0C3F30AF0515
:10017000AB0CAA0CA90CA80CAB0CAA0CA90CA80CD3
:10018000AB050230B4079B28A029B7013430B60074
:10019000360884008313371883170008943A03192C
:1001A0002929043A03192C291C3A03192F29043A46
:1001B000031932290C3A031935293C3A0319382915
:1001C0000C3A03193B29043A03193E291C3A031936
:1001D0004129043A031944290C3A03194729043ADE
:1001E00003194A293C3A03194D29043A03195029A5
:1001F0004C3A03195329683A031956296C3A0319E2
:1002000059292C3A03195C29083A03195F29043A41
:1002100003196229083A03196529783A03196829EC
:100220004C3A03196B29043A03196E290C3A031945
:100230007129043A031974292C3A03197729043ACD
:1002400003197A290C3A03197D29043A03198029E4
:1002500083294130F80085294230F8008529433050
:10026000F80085294430F80085294530F8008529B3
:100270003130F80085293230F80085293330F80014
:1002800085293430F80085293530F8008529363045
:10029000F80085293730F80085293830F80085299D
:1002A0003930F80085294630F80085293030F800CB
:1002B00085294730F80085294830F80085294930DC
:1002C000F80085294A30F80085294B30F800852947
:1002D0004C30F80085294D30F80085294E30F80063
:1002E00085294F30F80085295030F8008529513094
:1002F000F80085295230F80085295330F800852907
:100300005430F8008529FF30F800A52984018313B3
:100310001F30830583168E1519309900A63098007A
:1003200090308312980007309F0083160108C0396F
:1003300003388100011383120B16C0308B043A2856
:100340003108B5003008B400C5287808B300330F71
:10035000AA29AE2983168611831286159F29630068
:02400E00183F59
:00000001FF
;PIC16F628A
;CRC=9523  CREATED="25-févr.-12 20:39"
