:1000000001308A001A290000FF00030E8301A100BD
:100010007F08A0000A08A7008A01A00E0408A20019
:100020007708A3007808A4007908A5007A08A6003C
:10003000831383128C308400801E20288C1A37286A
:10004000220884002308F7002408F8002508F90096
:100050002608FA0027088A00210E8300FF0E7F0E73
:100060000900B201831606128312061208008C1EC4
:1000700037281A08C4004408503C031D49280130A1
:10008000B200B601B501BB01831606128312061633
:1000900076284408533C031D4F2831207628440815
:1000A000593C031D762832080C1E542899003A0842
:1000B000FA003908840083133A1883170008C50032
:1000C00045080C1E6128990001303907F8003A08EC
:1000D000FA000318FA0A7808840083137A18831741
:1000E0000008C50045080C1E732899008C128A115F
:1000F00020283E3084008313000803198C28023026
:10010000F800F701F70B8228F80B81289730F700E9
:10011000F70B8828800B7F283A2983160515831250
:10012000051990280830F700BD01F717A528F71327
:10013000A528031005190314BD0C7717A5287713FC
:10014000F70B99283D08F800B1281C30F71B073041
:10015000F800F80BA9280000F71B9728771B9F28A9
:1001600099280800F701F801410803104218F70721
:10017000F70CF80CC218F707F70CF80C4219F70740
:10018000F70CF80CC219F707F70CF80C421AF7072E
:10019000F70CF80CC21AF707F70CF80C421BF7071C
:1001A000F70CF80CC21BF707F70CF80C08003030FE
:1001B0002A02BE00C0013E08BF000230C200583013
:1001C000C1001030C300F701FA01C00CBF0C031CC2
:1001D000EF284108F7070318FA0A4208FA07FA0C51
:1001E000F70CF90CF80CC30BE5287908BE00780869
:1001F000BD0030302B02C000C1003C30C200B22034
:100200007808BD070318BE0A30302C02C000C100B8
:100210000A30C200B2207808BD070318BE0A303089
:100220002D023D07F8003E08FA000318FA0A7A0882
:10023000F9005D29840183131F308305831605109F
:1002400083120514193083169900A6309800903057
:100250008312980007309F0083168C16C0308312DB
:100260008B0483168612831286160430BD00FA3082
:10027000BE007928BD0B37293120BA013730B900CB
:100280003030B8003E30B7008D207808BC003C0804
:10029000213C031D44298D207808A9008D20780871
:1002A000AA008D207808AB008D207808AC008D2046
:1002B0007808AD002908B300D7287908B800780875
:1002C000B70033087B3C031D6A2934086B3C031DCF
:0C02D0006A2931203308B400442963007F
:02400E000A3F67
:00000001FF
;PIC16F628A
;CRC=0479  CREATED="04-mars-12 17:48"
