:1000000000308A0089280000FF00030E8301A10050
:100010007F08A0000A08A7008A01A00E0408A20019
:100020007708A3007808A4007908A5007A08A6003C
:10003000831383128C308400801E20288C1A6A2837
:10004000220884002308F7002408F8002508F90096
:100050002608FA0027088A00210E8300FF0E7F0E73
:1000600009002C1C352805113628051583160511A5
:100070008312AC1C3D2885133E28851783168513F3
:1000800083122C1D452805134628051783160513D2
:100090008312AC1D4D2886134E28861783168613AF
:1000A00083122C1E5528061356280617831606138E
:1000B0008312AC1E5D2886125E2886168316861271
:1000C00083122C1F65280612662806168316061250
:1000D000831208008C1E6A281A08A9002908AC009F
:1000E00031208C128A1120282B30840083130008C1
:1000F000031988280130F800F701F70B7D28F80B69
:100100007C284A30F700F70B83288628800B7A2852
:100110000800840183131F30830583168E15193060
:100120009900A630980090308312980007309F0005
:100130000130A90029087F3C031CAD28A8018B1BB6
:10014000A8178B132908AC003120A81B8B1764302B
:10015000AB0074200310A90D9A288030A900A908CB
:100160000319C128A8018B1BA8178B132908AC0001
:100170003120A81B8B176430AB0074200310A90C2E
:10018000AF280A30AA008230AB007420AA0BC32823
:10019000A8018B1BA8178B13AC013120A81B8B1750
:0E01A00083168C16C03083128B04D5286300A2
:02400E00183F59
:00000001FF
;PIC16F628A
;CRC=200C  CREATED="06-août-11 18:32"
