:1000000001308A009B290000340803190C283308AA
:100010008000840AB40B0728080083160513831296
:10002000051383168613831286178316051383120E
:10003000051783160513831205138316861383127F
:100040008613A101A001831686168312861A201733
:10005000831606168312061AA01683160617831235
:10006000061B201683160514831205182116831605
:1000700085178312851BA115831685148312851895
:100080002115831605138312051783160513831292
:1000900005138316051383120517831605138312A0
:1000A0000513831605138312051783160513831290
:1000B0000513831686168312861AA0158316061654
:1000C0008312061A2015831606178312061BA01426
:1000D0008316051483120518A1148316851783123D
:1000E000851B211483160513831205178316051328
:1000F00083120513831606178312061B20140800AB
:100100003308403C031D87283030F80006293308A7
:10011000793C031D8E283130F80006293308243C31
:10012000031D95283230F80006293308303C031DA2
:100130009C283330F80006293308193C031DA328F6
:100140003430F80006293308123C031DAA28353044
:10015000F80006293308023C031DB1283630F800A8
:1001600006293308783C031DB8283730F8000629E3
:10017000B308031DBE283830F80006293308103CA8
:10018000031DC5283930F800062933087F3C031DBC
:10019000CC282030F800062933080C3C031DD32856
:1001A0005030F80006293308083C031DDA28413096
:1001B000F80006293308063C031DE1284530F80005
:1001C00006293308413C031DE8285530F80006296C
:1001D00033082F3C031DEF285230F800062933085E
:1001E000483C031DF6284E30F800062933080E3C23
:1001F000031DFD284630F80006293308473C031D3F
:1002000004294C30F80006293308F8000800A3013F
:100210002308023C031C84290D202108023C031DF5
:100220000C292008A7000D20210B13292008A80065
:100230000D202108103C031D18292008A4000D20C2
:100240002108083C031D1F292008A5000D202108B6
:10025000043C031D26292008A600A308031D3B29F2
:100260002408A9002508AA002608AB002708AC002E
:100270002808AD0082292408B3002508B400260808
:10028000B5002708B6002808B7002908B8002A08D2
:10029000B9002B08BA002C08BB002D08BC00380898
:1002A0003302031956290030F80074293908340242
:1002B00003195D290030F80074293A083502031942
:1002C00064290030F80074293B08360203196B29B1
:1002D0000030F80074293C083702031972290030F5
:1002E000F80074290130F800F808031D8429240857
:1002F000A9002508AA002608AB002708AC0028089A
:10030000AD00A301A30A08292508B30080207808BE
:10031000A5002608B30080207808A6002708B300AF
:1003200080207808A7002808B30080207808A8005B
:100330000130F800B929840183131F308305831627
:100340008E150C309900A6309800903083129800DA
:1003500007309F00243084008313B3010530B400BC
:1003600004202E3084008313B3010530B400042030
:100370000729F8080319D42921300C1EBD2999003A
:1003800024080C1EC129990028080C1EC5299900B3
:1003900027080C1EC929990026080C1ECD29990092
:0C03A00025080C1ED1299900B829630023
:02400E00183F59
:00000001FF
;PIC16F628A
;CRC=E755  CREATED="08-mars-12 12:03"
